:020000040000FA
:100000008EEF1BF012001200EDEF00F01200010065
:100010004E3700006000000065000000F5DAF29E37
:100020000400EFEC19F0F28EC80EE66E20EC1BF027
:10003000E552040022DBCFEC0AF00001B79F00017B
:10004000B8990001BA990001BA910001BB91000171
:10005000BC910001BC97E66AC3EC05F0E552CD8087
:1000600004009BEC0BF00001010E635D000E64596F
:1000700001E2B1D00001636B646B3EEC04F000015F
:10008000756F00016051050A01E19ED0010A01E18E
:1000900077D0070A61E0010A39E0030A15E0010A96
:1000A00001E095D0EAEC14F00001010E6D6F640ED2
:1000B000E66E20EC1BF0E5520001010E6D6F62C090
:1000C00060F0F7EC08F086D005EC06F000018A51EC
:1000D00002E10EEC14F0000168050DE1A5EC0BF057
:1000E0000001010E6D6F0001686B0001955132082F
:1000F00002E200018A6B8450040B05E000019605C2
:1001000002E1FBEC13F0F7EC08F064D0E0EC06F051
:1001100000018A5102E10EEC14F0000168050DE1C6
:10012000CBEC0CF00001010E6D6F0001686B00015B
:100130009551320802E200018A6BE66AF2EC05F0A2
:10014000E5528450040B05E00001960502E1FBEC4A
:1001500013F0F7EC08F03ED0A1EC07F000016B05BE
:1001600004E1D3EC0DF000016B6B8450040B05E04F
:100170000001960502E1FBEC13F0F7EC08F02AD041
:1001800012EC08F000018A5102E10EEC14F00001BB
:100190006A050AE118EC0EF000016A6B0001955146
:1001A000320802E200018A6B0001910502E1EBECEA
:1001B0000EF08450040B05E00001960502E1FBEC13
:1001C00013F0F7EC08F006D0D3EC11F003D00001E7
:1001D000606B00D0D0DB44D71200DACFE4FFE2CF6F
:1001E000DAFFE9CFE4FFEACFE4FFF6CFE4FFF7CF91
:1001F000E4FFF5CFE4FFF3CFE4FFF4CFE4FFFACF61
:10020000E4FF00EE00F0140EE80403E3EECFE4FF99
:10021000FBD700EE14F0060EE80403E3EECFE4FF94
:10022000FBD7E6529EA05ED13C0ECF6EAF0ECE6ED7
:100230000001B55102E0000E01D0010E0001B56FC2
:10024000000100018151000181251C6E00010001A7
:100250008251000182211D6E1C50000181251A6E01
:100260001D50000182211B6E020EE66E3FEC17F05E
:10027000E5521A50F3240001816F1B50F420000155
:10028000826F0001D89082338133D89082338133DA
:100290000001B55101E020D1040000016F2B0001E5
:1002A0006F51140806E200016F6B0001701D000120
:1002B000706F0001652B000E66230001500E655D16
:1002C000460E665901E38B9E00017A51000802E256
:1002D00000017A0700016051050A01E1C1D0060A58
:1002E00001E180D0070A47E0060A21E0030A01E0A5
:1002F000BAD00001676B00016A6B8450040B0CE0FC
:100300000001695109E10001965106E10001010E69
:10031000686F0001656B666B8450040B01E0010E91
:100320000001696F84B402D00001966B9DD000017A
:10033000676B00016A6B8450040B0CE0000169518B
:1003400009E10001965106E10001010E686F00010C
:10035000656B666B8450040B01E0010E0001696F50
:1003600084B402D00001966B00016E51000802E2D5
:1003700000016E0779D00001676B0001686B000116
:10038000965115E184A406D00001772B0001656B1E
:10039000666B0DD0000178050001776F00016905DB
:1003A00006E10001020E6D6F0001010E916F84B431
:1003B00002D00001966B8450040B01E0010E000195
:1003C000696F000178510001775D0BE3000184053E
:1003D00008E18A7C0001846B0001776B0001010E4B
:1003E0006A6F42D08450040B17E00001695114E198
:1003F0000001965111E10001675102E0000E01D0A9
:10040000010E0001676F7DC07BF07EC07CF00001B3
:10041000010E7B5F000E7C5B8450040B01E0010E3B
:100420000001696F84B402D00001966B000167057A
:1004300007E100017B2B000E7C230001656B666BDE
:1004400000017D5100017B5D00017E5100017C595E
:1004500006E300017B6B7C6B0001010E6B6F04D027
:100460000001862B01D000D00001B6510CE1D1DA99
:10047000B9C0E6FF140EE66E420EE66EBFEC18F051
:10048000E552E552E55200016D51000804E28996FB
:1004900000016D0701D089860001580ED8807F5574
:1004A000020E805505E260C061F07ADB4AEC13F081
:1004B0000001BC0ED8808155020E825508E2000171
:1004C000920505E160C061F09ADB4AEC13F000018F
:1004D000632B000E642305D0040E0001605D01E172
:1004E00070D89E90F2A233D00001972B000E982373
:1004F00000019D2B000E9E230001983504E29751C8
:100500001E08000E985521E20001983504E297512B
:100510002808000E985519E38B800001830515E12A
:10052000010EE66E3FEC17F0E552000100017F512D
:10053000F32400017F6F000100018051F4200001CD
:10054000806F0001D89080337F338B90F292F0A2BD
:1005500014D081B209D00001A32B000EA423000106
:100560009F2B000EA02308D00001A307000EA45B60
:1005700000019F07000EA05BF092E55200EE19F01B
:10058000060EE80403E3E5CFEDFFFBD700EE13F022
:10059000140EE80403E3E5CFEDFFFBD7E5CFFAFF48
:1005A000E5CFF4FFE5CFF3FFE5CFF5FFE5CFF7FFAC
:1005B000E5CFF6FFE5CFEAFFE5CFE9FFE5CFDAFFCC
:1005C00011000001676B686B96510EE184A404D0A2
:1005D000772B656B666B08D07805776F690504E14A
:1005E000020E6D6F010E916F8450040B01E0010E3D
:1005F000696F7851775D07E3840505E18A7C846B38
:10060000776B010E6A6F1200D06A700ED36E800E87
:10061000D26E400E9B6EF26AF16AF06A010EC26EF3
:10062000C16AAE0EC06E0F01070E386F396B3A6BA0
:100630003C6BF70E926E080E806EBF0E936E816A51
:10064000946A800E826E956A836A9668846A3C0E0C
:10065000CF6EAF0ECE6E300ECD6EF288F19CF1985B
:10066000F088F08EF292F092F090010E9D6E9F6AEB
:10067000A26A9E6AA16AF28C1200300EE66E0A0E21
:10068000E66E400EE66EBFEC18F0E552E552E5521C
:10069000300EE66E0B0EE66E400EE66EBFEC18F006
:1006A000E552E552E552300EE66E0A0EE66E420E57
:1006B000E66EBFEC18F0E552E552E552300EE66EFC
:1006C0000B0EE66E420EE66EBFEC18F0E552E552F8
:1006D000E552300EE66E0A0EE66E440EE66EBFEC94
:1006E00018F0E552E552E552300EE66E0B0EE66E5E
:1006F000440EE66EBFEC18F0E552E552E552300EBE
:10070000E66E0A0EE66E460EE66EBFEC18F0E55297
:10071000E552E552300EE66E0B0EE66E460EE66EC4
:10072000BFEC18F0E552E552E552E66AE66A400E83
:10073000E66EBFEC18F0E552E552E552E66A010EAE
:10074000E66E400EE66EBFEC18F0E552E552E5525B
:10075000E66AE66A420EE66EBFEC18F0E552E55234
:10076000E552E66A010EE66E420EE66EBFEC18F048
:10077000E552E552E552E66AE66A440EE66EBFECE3
:1007800018F0E552E552E552E66A010EE66E440EB7
:10079000E66EBFEC18F0E552E552E552E66AE66A0D
:1007A000460EE66EBFEC18F0E552E552E552E66AF9
:1007B000010EE66E460EE66EBFEC18F0E552E5520D
:1007C000E5528996FA0EE66E20EC1BF0E552FA0E21
:1007D000E66E20EC1BF0E552FA0EE66E20EC1BF004
:1007E000E552FA0EE66E20EC1BF0E5528986E668CB
:1007F000140EE66E400EE66EBFEC18F0E552E552C0
:10080000E552E668150EE66E400EE66EBFEC18F097
:10081000E552E552E552E668140EE66E420EE66ECB
:10082000BFEC18F0E552E552E552E668150EE66EAB
:10083000420EE66EBFEC18F0E552E552E552E6686E
:10084000140EE66E440EE66EBFEC18F0E552E5526B
:10085000E552E668150EE66E440EE66EBFEC18F043
:10086000E552E552E552E668150EE66E460EE66E76
:10087000BFEC18F0E552E552E5521200D9CFE6FF81
:10088000E1CFD9FF020EE126DF6A010EDB6AE00E3E
:10089000E66EE66A460EE66EBFEC18F0E552E552EB
:1008A000E5520001BE510BE1E66A140EE66E460EFB
:1008B000E66EBFEC18F0E552E552E5520BD0010EA2
:1008C000E66E140EE66E460EE66EBFEC18F0E552CC
:1008D000E552E552120EE66E460EE66EDEEC18F0BC
:1008E000E552E552DF6EE00EDF14DF6E1E0EE66E9F
:1008F000E66A460EE66EBFEC18F0E552E552E552A8
:100900000001BE510BE1E66A140EE66E460EE66E7D
:10091000BFEC18F0E552E552E5520BD0010EE66E41
:10092000140EE66E460EE66EBFEC18F0E552E55288
:10093000E552120EE66E460EE66EDEEC18F0E5525B
:10094000E552E76E010EE7CFDBFFDB501F0BE76ED2
:10095000010EE7CFDBFFDB50DF100109146E020E42
:10096000E15C03E200D0E16AE552E16E1450E55229
:10097000E7CFD9FF1200B7C0E6FF140EE66E400EB7
:10098000E66EBFEC18F0E552E552E552B8C0E6FF5E
:10099000150EE66E400EE66EBFEC18F0E552E5521D
:1009A000E552B9C0E6FF140EE66E420EE66EBFECED
:1009B00018F0E552E552E552BAC0E6FF150EE66EB4
:1009C000420EE66EBFEC18F0E552E552E552BBC0B0
:1009D000E6FF140EE66E440EE66EBFEC18F0E5522C
:1009E000E552E552BCC0E6FF150EE66E440EE66E1B
:1009F000BFEC18F0E552E552E552BDC0E6FF150E1A
:100A0000E66E460EE66EBFEC18F0E552E552E55292
:100A10001200D9CFE6FFE1CFD9FFE652DF6A73C0FB
:100A200016F074C017F00F0E1702F3CF17F016026E
:100A3000F3CF16F0F450172616C0E6FF17C0E6FFF6
:100A4000E66A3FEC17F0E552E552E7CF17F0E552C2
:100A5000E7CF16F01650F324146E1750F420156EDD
:100A6000040ED89015321432E804FBE114C073F080
:100A700015C074F0320E086E096A73C00DF074C0B0
:100A80000EF032EC1BF006C071F007C072F0330EAE
:100A90000D6E0E6A71C008F072C009F068EC1BF0B0
:100AA00008C071F009C072F0F00E0001B915DF6ED8
:100AB000760E715D020E725903E2050E606F26D04C
:100AC000940E715D020E725908E2705103E00E0E31
:100AD000B96F02D00F0EB96F19D0BC0E715D020E46
:100AE000725903E20E0EB96F11D0E40E715D020E61
:100AF000725903E20C0EB96F09D00C0E715D030E32
:100B0000725903E2080EB96F01D0B96BDF50B91109
:100B1000B96F050E0F01075D03E10001B99F11D008
:100B2000060E075D03E10001B99D0BD0070E075DBE
:100B300003E10001B99B05D0080E075D02E1000149
:100B4000B999E552E552E7CFD9FF1200D9CFE6FFB8
:100B5000E1CFD9FF0001010E836F8C808C928B84D2
:100B6000656B666BE552E7CFD9FF1200D9CFE6FF80
:100B7000E1CFD9FF0001836B8C908C828B84E5528E
:100B8000E7CFD9FF1200D9CFE6FFE1CFD9FF0001AF
:100B9000836B8C908C928B84E552E7CFD9FF120047
:100BA0000001836B8C908C928B941200D9CFE6FF5E
:100BB000E1CFD9FF0001010E926F8C848C968B825D
:100BC000E552E7CFD9FF1200D9CFE6FFE1CFD9FF39
:100BD0000001020E926F8C948C868B82E552E7CFD7
:100BE000D9FF1200D9CFE6FFE1CFD9FF0001926B08
:100BF0008C948C968B82E552E7CFD9FF12000001CE
:100C0000926B8C948C968B921200D60E00019B6F87
:100C10009C6BB897BD9DBD9FBE6BBD9B7651755DAE
:100C200001E1BFD089967551770A01E1B0D00C0A75
:100C300001E1A4D0060A01E198D0D20A01E182D0F4
:100C4000720A48E0060A1DE00C0A02E08986A8D074
:100C5000020E0F01025D02E2022B01D0026B02CFF5
:100C6000E6FF330EE66E67EC17F0E552E552010E33
:100C7000E66E8DEC10F0E5523DEC11F000018A6B50
:100C80008FD0050E0F01035D02E2032B02D0010E8F
:100C9000036F03CFE6FF340EE66E67EC17F0E55204
:100CA000E55299EC11F0050E0F01035D03E0040E0F
:100CB000035D03E1030E076F02D0010E076F07CF3C
:100CC000E6FF360EE66E67EC17F0E552E5522FECC4
:100CD0000FF066D00F010951045D000E0A5502E2C3
:100CE000042B01D0046B04CFE6FF350EE66E67ECF3
:100CF00017F0E552E5520F010451F76ACC0FF66E7A
:100D0000340EF7220800F550166E176A0251140DC2
:100D1000F3CF14F0F4CF15F0D60E1426340E1522AE
:100D20000451020D1450F324F66E1550F420F76EA2
:100D3000000116500900F55CA16F17500900F55825
:100D4000A26F2ED090510F01075D02E2072B02D057
:100D5000010E076F07CFE6FF360EE66E67EC17F061
:100D6000E552E5522FEC0FF01BD0030E606F60C010
:100D7000E6FF25DBE55200018A6B12D0020E606FA0
:100D800060C0E6FF1CDBE55200018A6B09D0040E4F
:100D9000606F60C0E6FF13DBE55200018A6B00D094
:100DA00007D0DD0E755D03E1010E966F01D0966BE5
:100DB00075C076F0010EE66EF1EC11F0E55212000E
:100DC000140E00019B6F9C6BB893BD9DBD9FBE6BC5
:100DD000BD997651755D01E1A5D0899675516F0A6F
:100DE00001E196D0180A01E18AD00A0A01E17ED019
:100DF000C00A6CE0600A32E0060A1DE00C0A02E05C
:100E000089868FD0020E0F01025D02E2022B01D013
:100E1000026B02CFE6FF330EE66E67EC17F0E55289
:100E2000E552020EE66E8DEC10F0E5523DEC11F04D
:100E300000018A6B76D0050E0F01035D02E2032BE1
:100E400002D0010E036F03CFE6FF340EE66E67ECAF
:100E500017F0E552E55237EC10F063D00F0109515D
:100E6000045D000E0A5502E2042B01D0046B04CF8E
:100E7000E6FF350EE66E67EC17F0E552E5520F011E
:100E80000451F76ACC0FF66E340EF7220800F550C5
:100E9000166E176A0251140DF3CF14F0F4CF15F04B
:100EA000120E1426350E15220451020D1450F3248F
:100EB000F66E1550F420F76E000116500900F55C2F
:100EC000A16F17500900F558A26F2BD0030E0F0128
:100ED000055D02E2052B01D0056B05CFE6FF390E5B
:100EE000E66E67EC17F0E552E5521BD0030E606F1B
:100EF00060C0E6FF64DAE55200018A6B12D0040E8E
:100F0000606F60C0E6FF5BDAE55200018A6B09D0D2
:100F1000010E606F60C0E6FF52DAE55200018A6B95
:100F200000D007D0DD0E755D03E1010E966F01D094
:100F3000966B75C076F0020EE66EF1EC11F0E5529C
:100F40001200D9CFE6FFE1CFD9FFE652DF6A0001F8
:100F5000670505E17051B895E8B0B88501D0B8953E
:100F6000BD97010EBE6F7651755D49E0899675514A
:100F7000DD0A43E0B20A38E0180A2DE00C0A22E04C
:100F8000C00A02E089863AD0060E0F01065D02E231
:100F9000062B01D0066B06CFE6FF370EE66E67EC38
:100FA00017F0E552E5520F010651A00DF3CF7DF089
:100FB000F4CF7EF000017D517E1103E1140E7D6FB0
:100FC0007E6B1CD0020E606F60C0E6FFF8D9E55260
:100FD00000018A6B13D0040E606F60C0E6FFEFD98A
:100FE000E55200018A6B0AD0010E606F60C0E6FF17
:100FF000E6D9E55200018A6B01D000D007D0DD0EA2
:10100000755D03E1010E966F01D0966B75C076F0A9
:10101000030EE66EF1EC11F0E552E552E552E7CF32
:10102000D9FF1200D9CFE6FFE1CFD9FFE652DF6A40
:10103000320E00019B6F9C6BB891BD9DBD9FBE6B36
:10104000BD957651755D01E1BFD0899675516F0AE6
:1010500001E1B0D0140A01E1A4D0060A01E198D060
:10106000CA0A01E182D06A0A45E0060A1CE00C0ABD
:1010700002E08986A8D0020E0F01025D02E2022B77
:1010800001D0026B02CFE6FF330EE66E67EC17F07D
:10109000E552E552040E0F01096F0A6B00018A6BDD
:1010A0003DEC11F090D0050E0F01035D02E2032B21
:1010B00002D0010E036F03CFE6FF340EE66E67EC3D
:1010C00017F0E552E55280EC11F000018F510F014D
:1010D000D88008550CE2010E086F08CFE6FF380EE5
:1010E000E66E67EC17F0E552E55260EC11F063EC48
:1010F00010F069D0040E0F01096F0A6B0951045DED
:10110000000E0A5502E2042B01D0046B04CFE6FF67
:10111000350EE66E67EC17F0E552E5520F0104510B
:10112000F76ACC0FF66E340EF7220800F550166EF3
:10113000176A02510A0DF3CF14F0F4CF15F04E0EDA
:101140001426350E15220451020D1450F324F66EA8
:101150001550F420F76E000116500900F55CA16FE0
:1011600017500900F558A26F2ED08F510F01085D5E
:1011700002E2082B02D0010E086F08CFE6FF380EFE
:10118000E66E67EC17F0E552E55260EC11F01BD00B
:10119000030E606F60C0E6FF12D9E55200018A6B52
:1011A00012D0020E606F60C0E6FF09D9E55200015F
:1011B0008A6B09D0010E606F60C0E6FF00D9E5526E
:1011C00000018A6B00D007D0DD0E755D03E1010ED2
:1011D000966F01D0966B75C076F0040EE66EF1EC5A
:1011E00011F0E552E552E552E7CFD9FF12000F01A9
:1011F0000751080A24E00F0A1FE0010A1AE0030A57
:1012000015E0010A10E0070A0BE0010A06E0030AF4
:1012100001E018D00001BA9915D00001BA9B12D094
:101220000001BA9D0FD00001BA9F0CD00001B99FF8
:1012300009D00001B99D06D00001B99B03D000017F
:10124000B99900D00F010251020A0BE0030A06E02F
:10125000010A01E009D00001BC9106D00001BC9355
:1012600003D00001BC9500D00F010351050A15E021
:10127000010A10E0070A0BE0010A06E0030A01E098
:101280000FD00001BC970CD00001BC9909D000011F
:10129000BC9B06D00001BC9D03D00001BC9F00D0C8
:1012A0000F010451090A2EE0010A29E00F0A24E087
:1012B000010A1FE0030A1AE0010A15E0070A10E01C
:1012C000010A0BE0030A06E0010A01E01ED000015A
:1012D000BB911BD00001BB9318D00001BB9515D06A
:1012E0000001BB9712D00001BB990FD00001BB9B3E
:1012F0000CD00001BB9D09D00001BB9F06D00001AE
:10130000BD9103D00001BD9300D00F010851050A23
:1013100015E0010A10E0070A0BE0010A06E0030AE3
:1013200001E00FD00001B8990CD00001B89B09D0A2
:101330000001B89D06D00001B89F03D00001B7910D
:1013400000D00F010551030A10E0010A0BE0030A67
:1013500006E0010A01E00CD00001BA9109D00001B9
:10136000BA9306D00001BA9503D00001BA9700D015
:101370000F010651060A1FE0030A1AE0010A15E0F0
:10138000070A10E0010A0BE0030A06E0010A01E087
:1013900015D00001B79F12D00001B79D0FD00001FA
:1013A000B79B0CD00001B79909D00001B79306D0C4
:1013B0000001B79503D00001B79700D01200D9CF34
:1013C000E6FFE1CFD9FFFE0EDB50040A01E1A0D019
:1013D000070A01E17AD0010A3EE0030A01E0D4D015
:1013E0000F01026B050E036F020E046F030E076FF1
:1013F0000669086905692FEC0FF0010EE66E8DECA9
:1014000010F0E55299EC11F00F010451F76ACC0F7E
:10141000F66E340EF7220800F550166E176A025168
:10142000140DF3CF14F0F4CF15F0D60E1426340EAD
:1014300015220451020D1450F324F66E1550F420B9
:10144000F76E000116500900F55CA16F17500900F6
:10145000F558A26F99D00F01026B050E036F020EB3
:10146000046F076906690869056B00016E6B37EC4C
:1014700010F0020EE66E8DEC10F0E5520F010451F3
:10148000F76ACC0FF66E340EF7220800F550166E90
:10149000176A0251140DF3CF14F0F4CF15F0120EA9
:1014A0001426350E15220451020D1450F324F66E45
:1014B0001550F420F76E000116500900F55CA16F7D
:1014C00017500900F558A26F5FD00F01020E026F8E
:1014D000050E036F04690769010E066F0869056947
:1014E0006E0E0001996F9A6B0F010651A00DF3CF9C
:1014F0007DF0F4CF7EF000017D517E1103E1140EEA
:101500007D6F7E6B030EE66E8DEC10F0E5523CD0E5
:101510000F01026B050E036F020E046F0769066967
:10152000010E086F056963EC10F060EC11F0040E19
:101530000F01096F0A6B80EC11F00F010451F76A7B
:10154000CC0FF66E340EF7220800F550166E176AAF
:1015500002510A0DF3CF14F0F4CF15F04E0E1426FD
:10156000350E15220451020D1450F324F66E155059
:10157000F420F76E000116500900F55CA16F1750BA
:101580000900F558A26F00D03DEC11F0FE0EDBCF44
:1015900062F0BAEC13F0E552E7CFD9FF12007CEC11
:1015A00013F000016251040A01E18ED0070A6FE0D6
:1015B000010A37E0030A01E0BCD00F01066908699F
:1015C00005692FEC0FF0010EE66E8DEC10F0E55280
:1015D00099EC11F00F010451F76ACC0FF66E340E3E
:1015E000F7220800F550166E176A0251140DF3CF5A
:1015F00014F0F4CF15F0D60E1426340E1522045133
:10160000020D1450F324F66E1550F420F76E00010D
:1016100016500900F55CA16F17500900F558A26F2C
:1016200088D00F01076906690869140E0503F3CF16
:101630006EF037EC10F0020EE66E8DEC10F0E55215
:101640000F010451F76ACC0FF66E340EF722080032
:10165000F550166E176A0251140DF3CF14F0F4CF43
:1016600015F0120E1426350E15220451020D1450D9
:10167000F324F66E1550F420F76E000116500900A1
:10168000F55CA16F17500900F558A26F52D00F01F9
:1016900004690769086905696E0E0001996F9A6B04
:1016A0000F010651A00DF3CF7DF0F4CF7EF00001C5
:1016B0007D517E1103E1140E7D6F7E6B030EE66E8D
:1016C0008DEC10F0E55235D00F0107690669056908
:1016D00063EC10F060EC11F0040E0F01096F0A6B5F
:1016E00080EC11F00F010451F76ACC0FF66E340E46
:1016F000F7220800F550166E176A02510A0DF3CF53
:1017000014F0F4CF15F04E0E1426350E15220451A8
:10171000020D1450F324F66E1550F420F76E0001FC
:1017200016500900F55CA16F17500900F558A26F1B
:1017300000D03DEF11F00001B769B869F00EB913A0
:10174000BA69BB69BC69BD6912000001952BD60E50
:1017500000019B6F9C6B00019F6BA06B0001010E51
:10176000B66F0001A2510001A019E8AE02D0A03569
:1017700007D09F510001A15D0001A0510001A259B5
:1017800005E3E66AD6EC05F0E552EBD70001A2517D
:101790000001A019E8AE02D0A03507D09F5100018A
:1017A000A15D0001A0510001A25905E3E66AD6EC53
:1017B00005F0E552EBD7E66AE4EC05F0E552060EDB
:1017C000E66E20EC1BF0E552E66AF2EC05F0E5521D
:1017D0000001B66B84A448D004000001050E7A6FA6
:1017E0000001976B986B0001985100019A19E8AEBF
:1017F00002D09A3507D099510001975D00019A51A6
:101800000001985905E2E66AA6EC05F0E552EBD72F
:101810000001985100019A19E8AE02D09A3507D01C
:1018200099510001975D00019A510001985905E214
:10183000E66AA6EC05F0E552EBD7E66AB6EC05F0F1
:10184000E552090EE66E20EC1BF0E552E66AC3ECA9
:1018500005F0E55200017A51000801E2FBD797C07C
:10186000ADF098C0AEF0B6D70F010451F76ACC0FB7
:10187000F66E340EF7220800F550000188250001AD
:10188000BF6F000E000189210001C06FA3C0A5F049
:10189000A4C0A6F00001010EB66F0001C051000106
:1018A000A419E8AE02D0A43507D0A3510001BF5D52
:1018B0000001A4510001C05905E2E66AE4EC05F01C
:1018C000E552EBD70001C0510001A419E8AE02D0E7
:1018D000A43507D0A3510001BF5D0001A451000150
:1018E000C05905E2E66AE4EC05F0E552EBD7E66A9A
:1018F000D6EC05F0E552060EE66E20EC1BF0E55244
:10190000E66AF2EC05F0E552B9EC15F00001B66BB1
:101910000001976B986B00019C5100019819E8AE8B
:1019200002D0983507D0975100019B5D0001985176
:1019300000019C5905E3E66AB6EC05F0E552EBD7E9
:1019400000019C5100019819E8AE02D0983507D0EB
:10195000975100019B5D0001985100019C5905E3DE
:10196000E66AB6EC05F0E552EBD7E66AA6EC05F0C0
:10197000E552090EE66E20EC1BF0E552E66AC3EC78
:1019800005F0E552A3C0A7F0A4C0A8F0D0EC05F084
:10199000FFEC05F012000001952B140E9B6F9C6B61
:1019A000A1C0C1F0A2C0C2F09F6BA06B010EB66FC8
:1019B0000001C251A019E8AE02D0A03504D09F5159
:1019C000C15DA051C25905E3E66AD6EC05F0E552C7
:1019D000EFD70001C251A019E8AE02D0A03504D063
:1019E0009F51C15DA051C25905E3E66AD6EC05F0EE
:1019F000E552EFD7E66AE4EC05F0E552060EE66E36
:101A000020EC1BF0E552E66AF2EC05F0E552A3C0CB
:101A1000A5F0A4C0A6F00001976B986B00019A5145
:101A20009819E8AE02D0983504D09751995D985135
:101A30009A5905E3E66AA6EC05F0E552EFD70001F6
:101A40009A519819E8AE02D0983504D09751995D13
:101A500098519A5905E3E66AA6EC05F0E552EFD7EE
:101A6000E66AB6EC05F0E552090EE66E20EC1BF0D6
:101A7000E55297C0ADF098C0AEF0E66AC3EC05F051
:101A8000E552140E0F010503F3CF6EF000016E5105
:101A9000000801E2FBD79FC0A9F0A0C0AAF00F0187
:101AA0000451F76ACC0FF66E340EF7220800F55099
:101AB00000018825C16F000E8921C26FA3C0A5F067
:101AC000A4C0A6F00001C251A419E8AE02D0A4350A
:101AD00004D0A351C15DA451C25905E2E66AE4EC09
:101AE00005F0E552EFD70001C251A419E8AE02D0CB
:101AF000A43504D0A351C15DA451C25905E2E66AE0
:101B0000E4EC05F0E552EFD7E66AD6EC05F0E552D5
:101B1000060EE66E20EC1BF0E552E66AF2EC05F0EC
:101B2000E552B9EC15F097C0B1F098C0B2F00001E1
:101B3000976B986B00019C519819E8AE02D09835CC
:101B400004D097519B5D98519C5905E3E66AB6EC29
:101B500005F0E552EFD700019C519819E8AE02D08C
:101B6000983504D097519B5D98519C5905E3E66ADE
:101B7000B6EC05F0E552EFD7E66AA6EC05F0E552C3
:101B8000090EE66E20EC1BF0E552E66AC3EC05F0A8
:101B9000E5520001B66BA3C0A7F0A4C0A8F0D0EC3A
:101BA00005F0FFEF05F00001010E6D6F0F0106510A
:101BB00005E06E0E0001996F9A6B04D0110E0001C2
:101BC000996F9A6B976B986B00019A519819E8AED0
:101BD00002D0983504D09751995D98519A5905E3F0
:101BE000E66AA6EC05F0E552EFD700019A51981984
:101BF000E8AE02D0983504D09751995D98519A5922
:101C000005E3E66AA6EC05F0E552EFD7E66AB6EC26
:101C100005F0E552080EE66E20EC1BF0E552E66A90
:101C2000C3EC05F0E55297C0ADF098C0AEF01200DD
:101C30000001952B320E9B6F9C6BA351885D0F01A9
:101C40000D6F0001A45189590F010E6F0001A151C0
:101C50000F010D250001C36FA2510F010E210001DC
:101C6000C46F9F6BA06B010EB66F0001C451A01929
:101C7000E8AE02D0A03504D09F51C35DA051C45935
:101C800005E3E66AD6EC05F0E552EFD70001C45152
:101C9000A019E8AE02D0A03504D09F51C35DA05179
:101CA000C45905E3E66AD6EC05F0E552EFD7E66ADB
:101CB000E4EC05F0E552060EE66E20EC1BF0E55272
:101CC000E66AF2EC05F0E552A3C0A5F0A4C0A6F0C8
:101CD0000001976B986B00019A519819E8AE02D0F9
:101CE000983504D09751995D98519A5905E3E66A61
:101CF000A6EC05F0E552EFD700019A519819E8AE2D
:101D000002D0983504D09751995D98519A5905E3BE
:101D1000E66AA6EC05F0E552EFD797C0ADF098C0A3
:101D2000AEF0E66AB6EC05F0E552090EE66E20EC80
:101D30001BF0E552E66AC3EC05F0E5520F010451D1
:101D4000F76ACC0FF66E340EF7220800F55000014A
:101D50008825C36F000E8921C46F9F6BA06BA3C041
:101D6000A5F0A4C0A6F00001C451A419E8AE02D0A9
:101D7000A43504D0A351C35DA451C45905E2E66A59
:101D8000E4EC05F0E552EFD70001C451A419E8AE28
:101D900002D0A43504D0A351C35DA451C45905E2B7
:101DA000E66AE4EC05F0E552EFD7E66AD6EC05F01A
:101DB000E552060EE66E20EC1BF0E552E66AF2EC08
:101DC00005F0E552A3C0A7F0A4C0A8F00001B66BCF
:101DD000010E846F12000001976B986B00019C51FB
:101DE0009819E8AE02D0983504D097519B5D985170
:101DF0009C5905E3E66AB6EC05F0E552EFD7000121
:101E00009C519819E8AE02D0983504D097519B5D4B
:101E100098519C5905E3E66AB6EC05F0E552EFD718
:101E2000E66AA6EC05F0E552080EE66E20EC1BF023
:101E3000E552E66AC3EC05F0E5520001916B640ED1
:101E4000E66E20EC1BF0E552D0EC05F0FFEC05F05F
:101E500097C0AFF098C0B0F000018A6B12000F017C
:101E60000351050A01E1BED0010A01E179D0070A58
:101E700041E0010A09E0030A01E0F3D00001120E7B
:101E8000996F030E9A6FEDD00751060A2CE0030AF2
:101E900024E0010A1CE0070A14E0010A0CE0030A2E
:101EA00005E0D20E0001996F9A6B23D0D20E00018B
:101EB000996F9A6B1ED00001180E996F010E9A6FE0
:101EC00018D000015E0E996F010E9A6F12D00001BA
:101ED000A40E996F010E9A6F0CD00001EA0E996F53
:101EE000010E9A6F06D00001300E996F020E9A6FA4
:101EF00000D0B7D00751060A2CE0030A24E0010AFB
:101F00001CE0070A14E0010A0CE0030A05E0C90E10
:101F10000001996F9A6B23D0C90E0001996F9A6BDB
:101F20001ED000010C0E996F010E9A6F18D000019F
:101F30004F0E996F010E9A6F12D00001920E996F99
:101F4000010E9A6F0CD00001D50E996F010E9A6F99
:101F500006D00001180E996F020E9A6F00D081D042
:101F60000751080A38E00F0A30E0010A28E0030AA6
:101F700021E0010A1AE0070A13E0010A0CE0030A53
:101F800005E0690E0001996F9A6B2BD0690E000174
:101F9000996F9A6B26D08A0E0001996F9A6B21D0A7
:101FA000A60E0001996F9A6B1CD0C80E0001996FA4
:101FB0009A6B17D0E80E0001996F9A6B12D000014E
:101FC000090E996F010E9A6F0CD000012A0E996FBD
:101FD000010E9A6F06D000014C0E996F010E9A6F98
:101FE00000D03FD00751080A36E00F0A2FE0010A5F
:101FF00028E0030A21E0010A1AE0070A13E0010AB7
:102000000CE0030A05E04C0E0001996F9A6B28D092
:102010004C0E0001996F9A6B23D05E0E0001996FF0
:102020009A6B1ED0730E0001996F9A6B19D0890EAE
:102030000001996F9A6B14D09B0E0001996F9A6BF7
:102040000FD0B10E0001996F9A6B0AD0C40E000137
:10205000996F9A6B05D0D70E0001996F9A6B00D0DB
:1020600000D00A0E0001995F000E9A5B12000F016A
:10207000030506E10001400E996F060E9A6F1ED00F
:10208000020E035D06E10001E00E996F010E9A6FEA
:1020900015D0030E035D06E10001D70E996F010E06
:1020A0009A6F0CD0040E035D05E1E90E0001996FF3
:1020B0009A6B04D0A00E0001996F9A6B0A0E995F7B
:1020C000000E9A5B12000F01030506E100010E0EDF
:1020D000996F010E9A6F1CD0020E035D05E15C0E34
:1020E0000001996F9A6B14D0030E035D05E1520E47
:1020F0000001996F9A6B0CD0040E035D05E1340E5C
:102100000001996F9A6B04D0260E0001996F9A6BAB
:102110000A0E995F000E9A5B1200D9CFE6FFE1CF5D
:10212000D9FF0F010251020A10E0030A0AE0010A76
:1021300004E0040E096F0A6B0CD0040E096F0A6BE1
:1021400008D0060E096F0A6B04D0090E096F0A6BDE
:1021500000D00451090801E28CD00451095D000E41
:102160000A5901E386D0040E046F04CFE6FF350E52
:10217000E66E67EC17F0E552E552FE0EDB50040800
:1021800027E10F010451F76ACC0FF66E340EF722E7
:102190000800F550166E176A02510A0DF3CF14F0BD
:1021A000F4CF15F04E0E1426350E15220451020DF3
:1021B0001450F324F66E1550F420F76E00011650FB
:1021C0000900F55CA16F17500900F558A26F51D0B6
:1021D000FE0EDB50020827E10F010451F76ACC0F15
:1021E000F66E340EF7220800F550166E176A02518B
:1021F000140DF3CF14F0F4CF15F0120E1426350E93
:1022000015220451020D1450F324F66E1550F420DB
:10221000F76E000116500900F55CA16F1750090018
:10222000F558A26F26D00F010451F76ACC0FF66E55
:10223000340EF7220800F550166E176A0251140D7D
:10224000F3CF14F0F4CF15F0D60E1426340E152269
:102250000451020D1450F324F66E1550F420F76E5D
:10226000000116500900F55CA16F17500900F558E0
:10227000A26FE552E7CFD9FF12000F010251020A07
:1022800016E0030A0EE0010A06E000018C0E886FDA
:10229000010E896F10D000018C0E886F010E896FBE
:1022A0000AD000012F0E886F010E896F04D0000143
:1022B000886B896B00D088C0A7F089C0A8F0120095
:1022C0000F01080504E10001180E786F18D0020E06
:1022D000085D04E10001100E786F11D0030E085D57
:1022E00004E100010C0E786F0AD0040E085D04E1D1
:1022F0000001090E786F03D00001080E786F1200FC
:10230000040E0F01035D03E0050E035D04E100010F
:10231000050E8F6F0DD0030E035D03E0020E035D0B
:1023200004E10001040E8F6F03D00001020E8F6FD5
:102330001200040E0F01035D03E0050E035D04E1CE
:102340000001080E906F0DD0030E035D03E0020E36
:10235000035D04E10001060E906F03D00001010E41
:10236000906F12000001010EBE6FD0EC05F000016D
:102370008751100A15E01C0A10E0040A0BE00C0A51
:1023800006E0040A01E00ED0010E6D6F0BD0010EC5
:102390006D6F08D0010E6D6F05D0010E6D6F02D00C
:1023A0008B9E00D012000001010EBE6F8651100AF4
:1023B00015E01C0A10E0040A0BE00C0A06E0040A0F
:1023C00001E00ED0010E6D6F0BD0010E6D6F08D0C5
:1023D000010E6D6F05D0010E6D6F02D08B9E00D087
:1023E0001200D9CFE6FFE1CFD9FF8050100B03E1F7
:1023F00000018B0508E08150100B01E095D0000131
:102400008C0501E091D0010E936F0F010951045D1D
:10241000000E0A5502E2042B01D0046B04CFE6FF44
:10242000350EE66E67EC17F0E552E552FE0EDB5016
:10243000040827E10F010451F76ACC0FF66E340E41
:10244000F7220800F550166E176A02510A0DF3CFF5
:1024500014F0F4CF15F04E0E1426350E152204514B
:10246000020D1450F324F66E1550F420F76E00019F
:1024700016500900F55CA16F17500900F558A26FBE
:1024800051D0FE0EDB50020827E10F010451F76A1C
:10249000CC0FF66E340EF7220800F550166E176A50
:1024A0000251140DF3CF14F0F4CF15F0120E1426D0
:1024B000350E15220451020D1450F324F66E1550FA
:1024C000F420F76E000116500900F55CA16F17505B
:1024D0000900F558A26F26D00F010451F76ACC0FFE
:1024E000F66E340EF7220800F550166E176A025188
:1024F000140DF3CF14F0F4CF15F0D60E1426340ECD
:1025000015220451020D1450F324F66E1550F420D8
:10251000F76E000116500900F55CA16F1750090015
:10252000F558A26F010E6D6F8050100B01E0010E87
:1025300000018B6F8150100B01E0010E8C6F8050F9
:10254000200B02E18D0508E08150200B02E18E0591
:1025500003E0945101E190D0946B936B0F0104510F
:10256000000802E2040702D009CF04FF04CFE6FF0F
:10257000350EE66E67EC17F0E552E552FE0EDB50C5
:10258000040827E10F010451F76ACC0FF66E340EF0
:10259000F7220800F550166E176A02510A0DF3CFA4
:1025A00014F0F4CF15F04E0E1426350E15220451FA
:1025B000020D1450F324F66E1550F420F76E00014E
:1025C00016500900F55CA16F17500900F558A26F6D
:1025D00051D0FE0EDB50020827E10F010451F76ACB
:1025E000CC0FF66E340EF7220800F550166E176AFF
:1025F0000251140DF3CF14F0F4CF15F0120E14267F
:10260000350E15220451020D1450F324F66E1550A8
:10261000F420F76E000116500900F55CA16F175009
:102620000900F558A26F26D00F010451F76ACC0FAC
:10263000F66E340EF7220800F550166E176A025136
:10264000140DF3CF14F0F4CF15F0D60E1426340E7B
:1026500015220451020D1450F324F66E1550F42087
:10266000F76E000116500900F55CA16F17500900C4
:10267000F558A26F010E6D6F8050200B01E0010E26
:102680008D6F8150200B01E0010E8E6FE552E7CF78
:10269000D9FF12008996640EE66E20EC1BF0E5521D
:1026A0008986640EE66E20EC1BF0E5528996640E76
:1026B000E66E20EC1BF0E5528986640EE66E20EC97
:1026C0001BF0E5528996640EE66E20EC1BF0E55295
:1026D0008986640EE66E20EC1BF0E5528996640E46
:1026E000E66E20EC1BF0E5528986640EE66E20EC67
:1026F0001BF0E5528B9E1200320EE66E82EC17F054
:10270000E5520001626F62510A0802E2010E626F37
:10271000330EE66E82EC17F0E5520F01026F340EB5
:10272000E66E82EC17F0E5520F01036F350EE66E90
:1027300082EC17F0E5520F01046F360EE66E82EC64
:1027400017F0E5520F01076F370EE66E82EC17F0B7
:10275000E5520F01066F380EE66E82EC17F0E55277
:102760000F01086F390EE66E82EC17F0E5520F018B
:10277000056F120062C0E6FF320EE66E67EC17F0DE
:10278000E552E55202CFE6FF330EE66E67EC17F036
:10279000E552E55203CFE6FF340EE66E67EC17F024
:1027A000E552E55204CFE6FF350EE66E67EC17F012
:1027B000E552E55207CFE6FF360EE66E67EC17F0FE
:1027C000E552E55206CFE6FF370EE66E67EC17F0EE
:1027D000E552E55208CFE6FF380EE66E67EC17F0DB
:1027E000E552E55205CFE6FF390EE66E67EC17F0CD
:1027F000E552E552120084A406D00400E66AB6EC65
:1028000005F0E552F8D70001930503E10001010E40
:10281000946FD0EC05F0FFEC05F01200D9CFE6FF85
:10282000E1CFD9FF020EE1260001010E8A6FB66FDB
:102830008150080B0BE00001BC0E815D020E825935
:1028400005E2E66AE4EC05F0E552F2D7E66AF2EC5E
:1028500005F0E552640EE66E20EC1BF0E552000137
:10286000A36BA46B9F6BA06B0001A0518919E8AE0C
:1028700002D0893504D088519F5D8951A0593DE22D
:10288000010E926F9F51885D146E8951A055156E8F
:1028900014C0DEFF15C0DDFFD9CFE9FFDACFEAFFB4
:1028A0000A0EEC02F3CFEDFFEF02F3CFEEFFF45090
:1028B000ED26640EDE26000EDD22DECF14F0DDCF25
:1028C00015F0153404E21450FA08000E155403E212
:1028D000FA0EDE6EDD6A8C968C848B82DECFE6FF8C
:1028E000DDCFE6FF9CEC1BF0E552E5528C94010E27
:1028F000E66E20EC1BF0E552B7D700018951A01914
:10290000E8AE02D0A03504D09F51885DA05189590E
:102910003DE2020E926F88519F5D146EA051895561
:10292000156E14C0DEFF15C0DDFFD9CFE9FFDACF89
:10293000EAFF0A0EEC02F3CFEDFFEF02F3CFEEFF5A
:10294000F450ED26640EDE26000EDD22DECF14F0FC
:10295000DDCF15F0153404E21450FA08000E1554BA
:1029600003E2FA0EDE6EDD6A8C868C948B82DECFFB
:10297000E6FFDDCFE6FF9CEC1BF0E552E5528C96BE
:10298000010EE66E20EC1BF0E552B7D7B66B010ED8
:102990006D6F640EE66E20EC1BF0E5520001010E37
:1029A0006D6F640EE66E20EC1BF0E5529FC0A9F03F
:1029B000A0C0AAF0D0EC05F0FFEC05F00001956B8B
:1029C000020EE15C02E2E16AE552E16EE552E7CF18
:1029D000D9FF1200D9CFE6FFE1CFD9FF020EE126E1
:1029E0000001010EB66F8150080B0BE00001BC0E18
:1029F000815D020E825905E2E66AE4EC05F0E552DB
:102A0000F2D7E66AF2EC05F0E552640EE66E20ECD1
:102A10001BF0E5520001A36BA46B9F6BA06B000140
:102A20008951A019E8AE02D0A03504D09F51885D2D
:102A3000A05189593DE3010E926F9F51885D146E3C
:102A40008951A055156E14C0DEFF15C0DDFFD9CF2A
:102A5000E9FFDACFEAFF0A0EEC02F3CFEDFFEF0257
:102A6000F3CFEEFFF450ED26640EDE26000EDD22DD
:102A7000DECF14F0DDCF15F0153404E21450FA085F
:102A8000000E155403E2FA0EDE6EDD6A8C968C841D
:102A90008B82DECFE6FFDDCFE6FF9CEC1BF0E5523C
:102AA000E5528C94010EE66E20EC1BF0E552B7D790
:102AB0000001A0518919E8AE02D0893504D08851AF
:102AC0009F5D8951A0593DE3020E926F88519F5D31
:102AD000146EA0518955156E14C0DEFF15C0DDFFC0
:102AE000D9CFE9FFDACFEAFF0A0EEC02F3CFEDFF10
:102AF000EF02F3CFEEFFF450ED26640EDE26000E5B
:102B0000DD22DECF14F0DDCF15F0153404E21450D1
:102B1000FA08000E155403E2FA0EDE6EDD6A8C86AA
:102B20008C948B82DECFE6FFDDCFE6FF9CEC1BF0C2
:102B3000E552E5528C96010EE66E20EC1BF0E55254
:102B4000B7D7B66B640EE66E20EC1BF0E552D0EC06
:102B500005F0FFEC05F09FC0A9F0A0C0AAF0020E9E
:102B6000E15C02E2E16AE552E16EE552E7CFD9FFAE
:102B70001200D9CFE6FFE1CFD9FF020EE126000116
:102B8000A4518919E8AE02D0893504D08851A35DDB
:102B90008951A4593AE3020E926F8851A35D146ED5
:102BA000A4518955156E14C0DEFF15C0DDFFD9CFC5
:102BB000E9FFDACFEAFF010ED890EE36ED36E806EF
:102BC000FBE1320EDE26000EDD22DECF14F0DDCF7B
:102BD00015F0153404E214506408000E155403E295
:102BE000640EDE6EDD6A8C868C948B82DECFE6FF0F
:102BF000DDCFE6FF9CEC1BF0E552E5528C96010E12
:102C0000E66E20EC1BF0E552BAD700018951A419F9
:102C1000E8AE02D0A43504D0A351885DA4518959EF
:102C20003AE3010E926FA351885D146E8951A45549
:102C3000156E14C0DEFF15C0DDFFD9CFE9FFDACF76
:102C4000EAFF010ED890EE36ED36E806FBE1320ED3
:102C5000DE26000EDD22DECF14F0DDCF15F01534B8
:102C600004E214506408000E155403E2640EDE6E94
:102C7000DD6A8C968C848B82DECFE6FFDDCFE6FFAB
:102C80009CEC1BF0E552E5528C94010EE66E20ECB4
:102C90001BF0E552BAD7020EE15C02E2E16AE552AE
:102CA000E16EE552E7CFD9FF12000001792B79518F
:102CB000040A01E184D0070A54E0010A2BE0030A68
:102CC00002E0796BA3D00B0EE66ECEEC19F0E55264
:102CD00088C0E6FF89C0E6FF9EEC17F0E552E5529A
:102CE0001CCFE6FFB9EC19F0E5521DCFE6FFB9ECB9
:102CF00019F0E5521ECFE6FFB9EC19F0E5521FCFEF
:102D0000E6FFB9EC19F0E552200EE66EB9EC19F0C9
:102D1000E5527CD04B0EE66ECEEC19F0E552A3C026
:102D2000E6FFA4C0E6FF9EEC17F0E552E5521CCF8B
:102D3000E6FFB9EC19F0E5521DCFE6FFB9EC19F04A
:102D4000E5521ECFE6FFB9EC19F0E5521FCFE6FFC2
:102D5000B9EC19F0E552200EE66EB9EC19F0E55227
:102D600055D01B0EE66ECEEC19F0E5520001A751CE
:102D7000A55D146EA651A855156E14C0E6FF15C0CA
:102D8000E6FF9EEC17F0E552E5521CCFE6FFB9ECEA
:102D900019F0E5521DCFE6FFB9EC19F0E5521ECF50
:102DA000E6FFB9EC19F0E5521FCFE6FFB9EC19F0D8
:102DB000E552200EE66EB9EC19F0E55227D05B0E15
:102DC000E66ECEEC19F0E552A7C0E6FFA8C0E6FF1C
:102DD0009EEC17F0E552E5521CCFE6FFB9EC19F076
:102DE000E5521DCFE6FFB9EC19F0E5521ECFE6FF24
:102DF000B9EC19F0E5521FCFE6FFB9EC19F0E55236
:102E0000200EE66EB9EC19F0E55200D01200E66A29
:102E10000B0EE66EC40EE66E360EE66E82EC19F010
:102E2000E552E552E552E552400EE66E0B0EE66EB7
:102E3000B80EE66E360EE66E82EC19F0E552E552FB
:102E4000E552E552100EE66E0B0EE66EAC0EE66E27
:102E5000360EE66E82EC19F0E552E552E552E55287
:102E6000500EE66E0B0EE66EA00EE66E360EE66EA9
:102E700082EC19F0E552E552E552E5521200D9CF45
:102E8000E6FFE1CFD9FFFE0EDB50040DF350010940
:102E9000C26E0000000000000000C282C2A202D088
:102EA000FDD7FCD7C450166E16C017F0166AC35073
:102EB00000011624146E000E1720156E14C0F3FFC7
:102EC00015C0F4FF00D0E552E7CFD9FF1200D9CFEB
:102ED000E6FFE1CFD9FFFE0EDB50A96EFD0EDB5001
:102EE000A86EA69EA69CA684F29E550EA76EAA0E5C
:102EF000A76EA682F28EA694A6B2FED7E552E7CFC1
:102F0000D9FF1200D9CFE6FFE1CFD9FF020EE126AB
:102F1000FE0EDB50A96EA69EA69CA680A850DF6E72
:102F2000DF50146E020EE15C03E200D0E16AE5526C
:102F3000E16E1450E552E7CFD9FF1200D9CFE6FF7A
:102F4000E1CFD9FF100E146E270E156EFD0EDBCFEC
:102F500008F0FE0EDBCF09F014C00DF015C00EF026
:102F600068EC1BF008C01BFFFD0EDBCF16F0FE0E59
:102F7000DBCF17F00F011B51186E196A100E086E87
:102F8000270E096E18C00DF019C00EF032EC1BF0C0
:102F90000650165C146E07501758156EFD0E14C0BF
:102FA000DBFFFE0E15C0DBFFE80E146E030E156E80
:102FB000FD0EDBCF08F0FE0EDBCF09F014C00DF0E4
:102FC00015C00EF068EC1BF008C01CFFFD0EDBCF37
:102FD00016F0FE0EDBCF17F00F011C51186E196AA8
:102FE000E80E086E030E096E18C00DF019C00EF041
:102FF00032EC1BF00650165C146E07501758156E15
:10300000FD0E14C0DBFFFE0E15C0DBFF640E146E58
:10301000156AFD0EDBCF08F0FE0EDBCF09F014C001
:103020000DF015C00EF068EC1BF008C01DFFFD0E82
:10303000DBCF16F0FE0EDBCF17F00F011D51186E1F
:10304000196A640E086E096A18C00DF019C00EF0F6
:1030500032EC1BF00650165C146E07501758156EB4
:10306000FD0E14C0DBFFFE0E15C0DBFF0A0E146E52
:10307000156AFD0EDBCF08F0FE0EDBCF09F014C0A1
:103080000DF015C00EF068EC1BF008C01EFFFD0E21
:10309000DBCF16F0FE0EDBCF17F00F011E51186EBE
:1030A000196A0A0E086E096A18C00DF019C00EF0F0
:1030B00032EC1BF00650165C146E07501758156E54
:1030C00014C01FFF300E0F011B251B6F300E1C2577
:1030D0001C6F300E1D251D6F300E1E251E6F300E0D
:1030E0001F251F6FE552E7CFD9FF1200D9CFE6FFAA
:1030F000E1CFD9FFE652010EDF6E0AEC1AF0FE0EA8
:10310000DB50FE0BE66E1BEC1AF0E552FD0EDBCF3A
:10311000E6FF1BEC1AF0E55258EC1AF0E552E552C6
:10312000E7CFD9FF1200D9CFE6FFE1CFD9FF020EDA
:10313000E1260AEC1AF0FE0EDB500109E66E1BECEC
:103140001AF0E552E66A31EC1AF0E552F3CFDEFFF1
:10315000F4CFDDFF58EC1AF0DECF14F0DDCF15F020
:1031600014C0F3FF15C0F4FF020EE15C03E200D0CF
:10317000E16AE552E16EE552E7CFD9FF1200D9CFFF
:10318000E6FFE1CFD9FF0AEC1AF0FE0EDB50FE0B92
:10319000E66E1BEC1AF0E552FD0EDBCFE6FF1BECF2
:1031A0001AF0E552FC0EDBCFE6FF1BEC1AF0E552FD
:1031B00058EC1AF0E552E7CFD9FF1200D9CFE6FF5D
:1031C000E1CFD9FF020EE1260AEC1AF0FE0EDB5029
:1031D000FE0BE66E1BEC1AF0E552FD0EDBCFE6FFB0
:1031E0001BEC1AF0E5520DEC1AF0FE0EDB50010953
:1031F000E66E1BEC1AF0E552E66A31EC1AF0E55285
:10320000F3CFDEFFF4CFDDFF58EC1AF0DF50146E81
:10321000020EE15C03E200D0E16AE552E16E145077
:10322000E552E7CFD9FF1200E6684C0EE66E76EC69
:1032300018F0E552E552E6684E0EE66E76EC18F0B0
:10324000E552E552300EE66E4C0EE66E76EC18F066
:10325000E552E552E66A34D8E552E66A31D8E552DD
:10326000E66A2ED8E552380EE66E4C0EE66E76EC27
:1032700018F0E552E552E66A23D8E5520C0EE66EE8
:103280004C0EE66E76EC18F0E552E552E66A18D878
:10329000E552060EE66E4C0EE66E76EC18F0E55240
:1032A000E552E66A0DD8E552010EE66E4C0EE66E6A
:1032B00076EC18F0E552E552E66A02D8E5521200C3
:1032C000D9CFE6FFE1CFD9FFE65205EC1BF0FE0EA9
:1032D000DB50F109E66E4E0EE66E76EC18F0E55224
:1032E000E55205EC1BF0FE0EDB50F009E66E4E0ECB
:1032F000E66E76EC18F0E552E552E552E552E7CF7E
:10330000D9FF1200D9CFE6FFE1CFD9FF020EE126A7
:10331000DF6A010EDB6AFB0EDBCFE6FF3FD8E5522A
:10332000010EDBCF14F0FC0EDB50E76E1418E8AE94
:1033300002D0E73402D0E750145C11E2FD0EDBCF7F
:10334000F6FFDB2AFE0EDBCFF7FF01E3DB2A0800E6
:10335000F550E66E0ED8E552010EDB2AE1D7020EDB
:10336000E15C02E2E16AE552E16EE552E7CFD9FFA6
:103370001200D9CFE6FFE1CFD9FFFE0EDBCFE6FF8B
:103380004C0EE66E76EC18F0E552E552040EE66E51
:1033900097DFE552E552E7CFD9FF1200D9CFE6FF1C
:1033A000E1CFD9FFFE0EDB508009E66E4C0EE66ED3
:1033B00076EC18F0E552E552E66A82DFE552E55216
:1033C000E7CFD9FF1200010EE66E4C0EE66E76ECEA
:1033D00018F0E552E552E66A73DFE5521200948672
:1033E0009488280EC66EC56A310EC86EC78CC78E0B
:1033F0009E96A19612001F0EC51402E1000E01D088
:10340000010E146EC750040B01E0010E141001E010
:10341000F2D71200F0DFC5801200D9CFE6FFE1CF6E
:10342000D9FFE652E8DF05EC1BF0C582E552E55214
:10343000E7CFD9FF1200D9CFE6FFE1CFD9FFE6529F
:10344000DADF05EC1BF0FE0EDB50C96EC550400BF9
:10345000400A01E0010E00D0E552E552E7CFD9FF66
:103460001200D9CFE6FFE1CFD9FF020EE126C3DF7C
:1034700005EC1BF0C586BFDFC950DF6EBCDFFE0E5A
:10348000DB5002E0C59A01D0C58AC588DF50146EB2
:10349000156A14C0F3FF15C0F4FF020EE15C03E2ED
:1034A00000D0E16AE552E16EE552E7CFD9FF1200A4
:1034B000D9CFE6FFE1CFD9FFE6529DDF05EC1BF047
:1034C000C584E552E552E7CFD9FF12000A0B0B0B7A
:1034D0000C0C0C0D0D0D55008300B200E20018011C
:1034E0000000000000000000000051007900A8006A
:1034F000D4000401380169010000000000006000F0
:103500008D00B400E1000A0132015C018801B101C3
:10351000E10157008300B200E50016010000000041
:1035200000000000000051008000A600D30004014C
:10353000340168010000000000005A008800B20059
:10354000DD000A01350163018801B201DE01660078
:103550008E00BE00EF00220164007A00B700D600A2
:1035600011015B008500B000DD0009010E0EF66E52
:10357000000EF76E000EF86E0F010900F550166F81
:103580000900F550176F03E1166701D03DD009001F
:10359000F550116F0900F550126F0900F550136FC7
:1035A00009000900F550E96E0900F550EA6E0900BE
:1035B00009000900F550146F0900F550156F090056
:1035C0000900F6CF18FFF7CF19FFF8CF1AFF11CF78
:1035D000F6FF12CFF7FF13CFF8FF0F01145302E1EC
:1035E000155307E00900F550EE6E1407F8E21507D1
:1035F000F9D718CFF6FF19CFF7FF1ACFF8FF0F0151
:103600001607000E175BBFD712000F01280E216F9F
:103610000F01210702E0FCD7FBD712000F01640E57
:10362000226F0F01220702E0FCD7FBD712000F0127
:10363000FA0E236F0F01230702E0FCD7FBD712001D
:10364000D9CFE6FFE1CFD9FF0F01100E246FEFDFD6
:103650000F012407FCE1FE0EDB06F6E1E552E7CFA1
:10366000D9FF120008C012F008500D02F4CF07F085
:10367000F3CF06F009500E02F4CF09F0F3CF08F0B3
:103680000D02F3500726F4500822E86A092212506E
:103690000E02F3500726F4500822E86A0922000CB3
:1036A000504F53205245544F55523A0050524F46B6
:1036B0004F4E444555523A00504F532043484152D3
:1036C000494F3A005A45524F2041494755203A0048
:1036D000056A046A100EE76ED8900836093604367B
:1036E00005360D50045C0E50055805E30D50045E80
:1036F0000E50055A082AE72EF0D71200380EF36E46
:1037000000EE00F00F0E01D81200EA6002D0EE6A5F
:10371000FCD7F350E9601200EE6AFCD71EEE00F011
:103720002EEE00F0F86A019CB6EC1AF003EC00F003
:103730000EEC00F0FBD71200FF0EE350E84E120033
:10374000000000D000D000D0E82EFAD71200000010
:103750000000000000000000000000000000000069
:10376000002003000000070000000000000000002F
:103770000000010000000000010000000000000047
:10378000000000000000006400320000000000643F
:103790000000000000000000000000000000000029
:1037A0000000000000FFFFFFFFFFFFFF010000001F
:1037B000000000FFFFFFFFFFFFFFFFFFFFFFFFFF16
:1037C000FFFFFFFFFFFFFFFFFFFFFFFFFFFFFFFF09
:1037D000FFFFFFFFFFFFFFFFFFFFFFFFFFFFFFFFF9
:1037E000FFFFFFFFFFFFFFFFFFFFFFFFFFFFFFFFE9
:1037F000FFFFFFFFFFFFFFFFFFFFFFFFFFFFFFFFD9
:0200000400F00A
:10003000FFFF0100010201FFFFFFFFFFFFFFFFFFC6
:10004000FFFFFFFFFFFFFFFFFFFFFFFFFFFFFFFFC0
:10005000FFFFFFFFFFFFFFFFFFFFFFFFFFFFFFFFB0
:10006000FFFFFFFFFFFFFFFFFFFFFFFFFFFFFFFFA0
:10007000FFFFFFFFFFFFFFFFFFFFFFFFFFFFFFFF90
:020000040030CA
:0E00000000281F2700BF85000FC00FE00F4033
:020000040020DA
:08000000FFFFFFFFFFFFFFFF00
:00000001FF
